{
  "_format": "hh-sol-artifact-1",
  "contractName": "MockOT",
  "sourceName": "contracts/MockOT.sol",
  "abi": [
    {
      "inputs": [
        {
          "internalType": "uint256",
          "name": "_daysToExpire",
          "type": "uint256"
        }
      ],
      "stateMutability": "nonpayable",
      "type": "constructor"
    },
    {
      "anonymous": false,
      "inputs": [
        {
          "indexed": true,
          "internalType": "address",
          "name": "owner",
          "type": "address"
        },
        {
          "indexed": true,
          "internalType": "address",
          "name": "spender",
          "type": "address"
        },
        {
          "indexed": false,
          "internalType": "uint256",
          "name": "value",
          "type": "uint256"
        }
      ],
      "name": "Approval",
      "type": "event"
    },
    {
      "anonymous": false,
      "inputs": [
        {
          "indexed": true,
          "internalType": "address",
          "name": "from",
          "type": "address"
        },
        {
          "indexed": true,
          "internalType": "address",
          "name": "to",
          "type": "address"
        },
        {
          "indexed": false,
          "internalType": "uint256",
          "name": "value",
          "type": "uint256"
        }
      ],
      "name": "Transfer",
      "type": "event"
    },
    {
      "inputs": [
        {
          "internalType": "address",
          "name": "owner",
          "type": "address"
        },
        {
          "internalType": "address",
          "name": "spender",
          "type": "address"
        }
      ],
      "name": "allowance",
      "outputs": [
        {
          "internalType": "uint256",
          "name": "",
          "type": "uint256"
        }
      ],
      "stateMutability": "view",
      "type": "function"
    },
    {
      "inputs": [
        {
          "internalType": "address",
          "name": "spender",
          "type": "address"
        },
        {
          "internalType": "uint256",
          "name": "amount",
          "type": "uint256"
        }
      ],
      "name": "approve",
      "outputs": [
        {
          "internalType": "bool",
          "name": "",
          "type": "bool"
        }
      ],
      "stateMutability": "nonpayable",
      "type": "function"
    },
    {
      "inputs": [
        {
          "internalType": "address",
          "name": "account",
          "type": "address"
        }
      ],
      "name": "balanceOf",
      "outputs": [
        {
          "internalType": "uint256",
          "name": "",
          "type": "uint256"
        }
      ],
      "stateMutability": "view",
      "type": "function"
    },
    {
      "inputs": [],
      "name": "decimals",
      "outputs": [
        {
          "internalType": "uint8",
          "name": "",
          "type": "uint8"
        }
      ],
      "stateMutability": "view",
      "type": "function"
    },
    {
      "inputs": [
        {
          "internalType": "address",
          "name": "spender",
          "type": "address"
        },
        {
          "internalType": "uint256",
          "name": "subtractedValue",
          "type": "uint256"
        }
      ],
      "name": "decreaseAllowance",
      "outputs": [
        {
          "internalType": "bool",
          "name": "",
          "type": "bool"
        }
      ],
      "stateMutability": "nonpayable",
      "type": "function"
    },
    {
      "inputs": [],
      "name": "expiry",
      "outputs": [
        {
          "internalType": "uint256",
          "name": "",
          "type": "uint256"
        }
      ],
      "stateMutability": "view",
      "type": "function"
    },
    {
      "inputs": [],
      "name": "getExpiry",
      "outputs": [
        {
          "internalType": "uint256",
          "name": "",
          "type": "uint256"
        }
      ],
      "stateMutability": "view",
      "type": "function"
    },
    {
      "inputs": [],
      "name": "getStart",
      "outputs": [
        {
          "internalType": "uint256",
          "name": "",
          "type": "uint256"
        }
      ],
      "stateMutability": "view",
      "type": "function"
    },
    {
      "inputs": [
        {
          "internalType": "address",
          "name": "spender",
          "type": "address"
        },
        {
          "internalType": "uint256",
          "name": "addedValue",
          "type": "uint256"
        }
      ],
      "name": "increaseAllowance",
      "outputs": [
        {
          "internalType": "bool",
          "name": "",
          "type": "bool"
        }
      ],
      "stateMutability": "nonpayable",
      "type": "function"
    },
    {
      "inputs": [],
      "name": "name",
      "outputs": [
        {
          "internalType": "string",
          "name": "",
          "type": "string"
        }
      ],
      "stateMutability": "view",
      "type": "function"
    },
    {
      "inputs": [],
      "name": "start",
      "outputs": [
        {
          "internalType": "uint256",
          "name": "",
          "type": "uint256"
        }
      ],
      "stateMutability": "view",
      "type": "function"
    },
    {
      "inputs": [],
      "name": "symbol",
      "outputs": [
        {
          "internalType": "string",
          "name": "",
          "type": "string"
        }
      ],
      "stateMutability": "view",
      "type": "function"
    },
    {
      "inputs": [],
      "name": "totalSupply",
      "outputs": [
        {
          "internalType": "uint256",
          "name": "",
          "type": "uint256"
        }
      ],
      "stateMutability": "view",
      "type": "function"
    },
    {
      "inputs": [
        {
          "internalType": "address",
          "name": "recipient",
          "type": "address"
        },
        {
          "internalType": "uint256",
          "name": "amount",
          "type": "uint256"
        }
      ],
      "name": "transfer",
      "outputs": [
        {
          "internalType": "bool",
          "name": "",
          "type": "bool"
        }
      ],
      "stateMutability": "nonpayable",
      "type": "function"
    },
    {
      "inputs": [
        {
          "internalType": "address",
          "name": "sender",
          "type": "address"
        },
        {
          "internalType": "address",
          "name": "recipient",
          "type": "address"
        },
        {
          "internalType": "uint256",
          "name": "amount",
          "type": "uint256"
        }
      ],
      "name": "transferFrom",
      "outputs": [
        {
          "internalType": "bool",
          "name": "",
          "type": "bool"
        }
      ],
      "stateMutability": "nonpayable",
      "type": "function"
    }
  ],
  "bytecode": "0x60c06040523480156200001157600080fd5b5060405162000e3a38038062000e3a833981016040819052620000349162000264565b60405180604001604052806006815260200165135bd8dad3d560d21b815250604051806040016040528060038152602001621353d560ea1b815250816003908051906020019062000087929190620001be565b5080516200009d906004906020840190620001be565b50504260805250620000b38162015180620002d8565b620000bf9042620002bd565b60a052620000d0336101f4620000d7565b506200034d565b6001600160a01b038216620001095760405162461bcd60e51b815260040162000100906200027d565b60405180910390fd5b6200011760008383620001b9565b80600260008282546200012b9190620002bd565b90915550506001600160a01b038216600090815260208190526040812080548392906200015a908490620002bd565b90915550506040516001600160a01b038316906000907fddf252ad1be2c89b69c2b068fc378daa952ba7f163c4a11628f55a4df523b3ef906200019f908590620002b4565b60405180910390a3620001b560008383620001b9565b5050565b505050565b828054620001cc90620002fa565b90600052602060002090601f016020900481019282620001f057600085556200023b565b82601f106200020b57805160ff19168380011785556200023b565b828001600101855582156200023b579182015b828111156200023b5782518255916020019190600101906200021e565b50620002499291506200024d565b5090565b5b808211156200024957600081556001016200024e565b60006020828403121562000276578081fd5b5051919050565b6020808252601f908201527f45524332303a206d696e7420746f20746865207a65726f206164647265737300604082015260600190565b90815260200190565b60008219821115620002d357620002d362000337565b500190565b6000816000190483118215151615620002f557620002f562000337565b500290565b6002810460018216806200030f57607f821691505b602082108114156200033157634e487b7160e01b600052602260045260246000fd5b50919050565b634e487b7160e01b600052601160045260246000fd5b60805160a051610ab962000381600039600081816104d301526104f701526000818161046001526104840152610ab96000f3fe608060405234801561001057600080fd5b50600436106100f55760003560e01c806395d89b4111610097578063c5292c6711610066578063c5292c67146101d1578063dd62ed3e146101d9578063e184c9be146101ec578063f61c266b146101f4576100f5565b806395d89b411461019b578063a457c2d7146101a3578063a9059cbb146101b6578063be9a6555146101c9576100f5565b806323b872dd116100d357806323b872dd1461014d578063313ce56714610160578063395093511461017557806370a0823114610188576100f5565b806306fdde03146100fa578063095ea7b31461011857806318160ddd14610138575b600080fd5b6101026101fc565b60405161010f91906107d9565b60405180910390f35b61012b6101263660046107a5565b61028e565b60405161010f91906107ce565b6101406102ab565b60405161010f9190610a0d565b61012b61015b36600461076a565b6102b1565b61016861034a565b60405161010f9190610a16565b61012b6101833660046107a5565b61034f565b610140610196366004610717565b6103a3565b6101026103c2565b61012b6101b13660046107a5565b6103d1565b61012b6101c43660046107a5565b61044a565b61014061045e565b610140610482565b6101406101e7366004610738565b6104a6565b6101406104d1565b6101406104f5565b60606003805461020b90610a48565b80601f016020809104026020016040519081016040528092919081815260200182805461023790610a48565b80156102845780601f1061025957610100808354040283529160200191610284565b820191906000526020600020905b81548152906001019060200180831161026757829003601f168201915b5050505050905090565b60006102a261029b610519565b848461051d565b50600192915050565b60025490565b60006102be8484846105d1565b6001600160a01b0384166000908152600160205260408120816102df610519565b6001600160a01b03166001600160a01b031681526020019081526020016000205490508281101561032b5760405162461bcd60e51b8152600401610322906108f7565b60405180910390fd5b61033f85610337610519565b85840361051d565b506001949350505050565b601290565b60006102a261035c610519565b84846001600061036a610519565b6001600160a01b03908116825260208083019390935260409182016000908120918b168152925290205461039e9190610a24565b61051d565b6001600160a01b0381166000908152602081905260409020545b919050565b60606004805461020b90610a48565b600080600160006103e0610519565b6001600160a01b039081168252602080830193909352604091820160009081209188168152925290205490508281101561042c5760405162461bcd60e51b8152600401610322906109c8565b610440610437610519565b8585840361051d565b5060019392505050565b60006102a2610457610519565b84846105d1565b7f000000000000000000000000000000000000000000000000000000000000000081565b7f000000000000000000000000000000000000000000000000000000000000000090565b6001600160a01b03918216600090815260016020908152604080832093909416825291909152205490565b7f000000000000000000000000000000000000000000000000000000000000000081565b7f000000000000000000000000000000000000000000000000000000000000000090565b3390565b6001600160a01b0383166105435760405162461bcd60e51b815260040161032290610984565b6001600160a01b0382166105695760405162461bcd60e51b81526004016103229061086f565b6001600160a01b0380841660008181526001602090815260408083209487168084529490915290819020849055517f8c5be1e5ebec7d5bd14f71427d1e84f3dd0314c0f7b2291e5b200ac8c7c3b925906105c4908590610a0d565b60405180910390a3505050565b6001600160a01b0383166105f75760405162461bcd60e51b81526004016103229061093f565b6001600160a01b03821661061d5760405162461bcd60e51b81526004016103229061082c565b6106288383836106fb565b6001600160a01b038316600090815260208190526040902054818110156106615760405162461bcd60e51b8152600401610322906108b1565b6001600160a01b03808516600090815260208190526040808220858503905591851681529081208054849290610698908490610a24565b92505081905550826001600160a01b0316846001600160a01b03167fddf252ad1be2c89b69c2b068fc378daa952ba7f163c4a11628f55a4df523b3ef846040516106e29190610a0d565b60405180910390a36106f58484846106fb565b50505050565b505050565b80356001600160a01b03811681146103bd57600080fd5b600060208284031215610728578081fd5b61073182610700565b9392505050565b6000806040838503121561074a578081fd5b61075383610700565b915061076160208401610700565b90509250929050565b60008060006060848603121561077e578081fd5b61078784610700565b925061079560208501610700565b9150604084013590509250925092565b600080604083850312156107b7578182fd5b6107c083610700565b946020939093013593505050565b901515815260200190565b6000602080835283518082850152825b81811015610805578581018301518582016040015282016107e9565b818111156108165783604083870101525b50601f01601f1916929092016040019392505050565b60208082526023908201527f45524332303a207472616e7366657220746f20746865207a65726f206164647260408201526265737360e81b606082015260800190565b60208082526022908201527f45524332303a20617070726f766520746f20746865207a65726f206164647265604082015261737360f01b606082015260800190565b60208082526026908201527f45524332303a207472616e7366657220616d6f756e7420657863656564732062604082015265616c616e636560d01b606082015260800190565b60208082526028908201527f45524332303a207472616e7366657220616d6f756e74206578636565647320616040820152676c6c6f77616e636560c01b606082015260800190565b60208082526025908201527f45524332303a207472616e736665722066726f6d20746865207a65726f206164604082015264647265737360d81b606082015260800190565b60208082526024908201527f45524332303a20617070726f76652066726f6d20746865207a65726f206164646040820152637265737360e01b606082015260800190565b60208082526025908201527f45524332303a2064656372656173656420616c6c6f77616e63652062656c6f77604082015264207a65726f60d81b606082015260800190565b90815260200190565b60ff91909116815260200190565b60008219821115610a4357634e487b7160e01b81526011600452602481fd5b500190565b600281046001821680610a5c57607f821691505b60208210811415610a7d57634e487b7160e01b600052602260045260246000fd5b5091905056fea2646970667358221220847a737aa90ad7d0a3e97708c191baa061d1baf5fdfeb60b566b38ba4f8f415e64736f6c63430008000033",
  "linkReferences": {},
  "deployedLinkReferences": {}
}